{
  "address": "0x5FC8d32690cc91D4c39d9d3abcBD16989F875707",
  "abi": [
    {
      "inputs": [
        {
          "internalType": "address",
          "name": "_oracle",
          "type": "address"
        },
        {
          "internalType": "string",
          "name": "_jobId",
          "type": "string"
        },
        {
          "internalType": "uint256",
          "name": "_fee",
          "type": "uint256"
        },
        {
          "internalType": "address",
          "name": "_link",
          "type": "address"
        }
      ],
      "stateMutability": "nonpayable",
      "type": "constructor"
    },
    {
      "anonymous": false,
      "inputs": [
        {
          "indexed": true,
          "internalType": "bytes32",
          "name": "id",
          "type": "bytes32"
        }
      ],
      "name": "ChainlinkCancelled",
      "type": "event"
    },
    {
      "anonymous": false,
      "inputs": [
        {
          "indexed": true,
          "internalType": "bytes32",
          "name": "id",
          "type": "bytes32"
        }
      ],
      "name": "ChainlinkFulfilled",
      "type": "event"
    },
    {
      "anonymous": false,
      "inputs": [
        {
          "indexed": true,
          "internalType": "bytes32",
          "name": "id",
          "type": "bytes32"
        }
      ],
      "name": "ChainlinkRequested",
      "type": "event"
    },
    {
      "inputs": [
        {
          "internalType": "bytes32",
          "name": "_requestId",
          "type": "bytes32"
        },
        {
          "internalType": "uint256",
          "name": "_volume",
          "type": "uint256"
        }
      ],
      "name": "fulfill",
      "outputs": [],
      "stateMutability": "nonpayable",
      "type": "function"
    },
    {
      "inputs": [],
      "name": "requestVolumeData",
      "outputs": [
        {
          "internalType": "bytes32",
          "name": "requestId",
          "type": "bytes32"
        }
      ],
      "stateMutability": "nonpayable",
      "type": "function"
    },
    {
      "inputs": [
        {
          "internalType": "string",
          "name": "source",
          "type": "string"
        }
      ],
      "name": "stringToBytes32",
      "outputs": [
        {
          "internalType": "bytes32",
          "name": "result",
          "type": "bytes32"
        }
      ],
      "stateMutability": "pure",
      "type": "function"
    },
    {
      "inputs": [],
      "name": "volume",
      "outputs": [
        {
          "internalType": "uint256",
          "name": "",
          "type": "uint256"
        }
      ],
      "stateMutability": "view",
      "type": "function"
    }
  ],
  "transactionHash": "0x99d80d9aa4afc3fdd46015bbfb77ca87342e92349d9ad01eac5c495f0b2b2dea",
  "args": [
    "0xCf7Ed3AccA5a467e9e704C703E8D87F634fB0Fc9",
    "29fa9aa13bf1468788b7cc4a500a45b8",
    "100000000000000000",
    "0x5FbDB2315678afecb367f032d93F642f64180aa3"
  ],
  "solcInputHash": "9361da1fc38921f8a230340d5ac9b2d0",
  "bytecode": "0x608060405260016004553480156200001657600080fd5b50604051620013f3380380620013f3833981810160405260808110156200003c57600080fd5b8101908080519060200190929190805160405193929190846401000000008211156200006757600080fd5b838201915060208201858111156200007e57600080fd5b82518660018202830111640100000000821117156200009c57600080fd5b8083526020830192505050908051906020019080838360005b83811015620000d2578082015181840152602081019050620000b5565b50505050905090810190601f168015620001005780820380516001836020036101000a031916815260200191505b506040526020018051906020019092919080519060200190929190505050600073ffffffffffffffffffffffffffffffffffffffff168173ffffffffffffffffffffffffffffffffffffffff1614156200016a5762000164620001e560201b60201c565b6200017c565b6200017b816200028f60201b60201c565b5b83600760006101000a81548173ffffffffffffffffffffffffffffffffffffffff021916908373ffffffffffffffffffffffffffffffffffffffff160217905550620001ce83620002d360201b60201c565b600881905550816009819055505050505062000300565b6200028d73c89bd4e1632d3a43cb03aaad5262cbe4038bc57173ffffffffffffffffffffffffffffffffffffffff166338cc48316040518163ffffffff1660e01b815260040160206040518083038186803b1580156200024457600080fd5b505afa15801562000259573d6000803e3d6000fd5b505050506040513d60208110156200027057600080fd5b81019080805190602001909291905050506200028f60201b60201c565b565b80600260006101000a81548173ffffffffffffffffffffffffffffffffffffffff021916908373ffffffffffffffffffffffffffffffffffffffff16021790555050565b60006060829050600081511415620002f2576000801b915050620002fb565b60208301519150505b919050565b6110e380620003106000396000f3fe608060405234801561001057600080fd5b506004361061004c5760003560e01c80634357855e146100515780636021abac14610089578063c618a1e4146100a7578063cfb51928146100c5575b600080fd5b6100876004803603604081101561006757600080fd5b810190808035906020019092919080359060200190929190505050610194565b005b6100916102bb565b6040518082815260200191505060405180910390f35b6100af610449565b6040518082815260200191505060405180910390f35b61017e600480360360208110156100db57600080fd5b81019080803590602001906401000000008111156100f857600080fd5b82018360208201111561010a57600080fd5b8035906020019184600183028401116401000000008311171561012c57600080fd5b91908080601f016020809104026020016040519081016040528093929190818152602001838380828437600081840152601f19601f82011690508083019250505050505050919291929050505061044f565b6040518082815260200191505060405180910390f35b816005600082815260200190815260200160002060009054906101000a900473ffffffffffffffffffffffffffffffffffffffff1673ffffffffffffffffffffffffffffffffffffffff163373ffffffffffffffffffffffffffffffffffffffff161461024c576040517f08c379a000000000000000000000000000000000000000000000000000000000815260040180806020018281038252602881526020018061103d6028913960400191505060405180910390fd5b6005600082815260200190815260200160002060006101000a81549073ffffffffffffffffffffffffffffffffffffffff0219169055807f7cc135e0cebb02c3480ae5d74d377283180a2601f8f644edf7987b009316c63a60405160405180910390a281600681905550505050565b60006102c5610f92565b6102d960085430634357855e60e01b61047a565b905061033d6040518060400160405280600381526020017f676574000000000000000000000000000000000000000000000000000000000081525060405180608001604052806049815260200161106560499139836104ab9092919063ffffffff16565b6103bc6040518060400160405280600481526020017f70617468000000000000000000000000000000000000000000000000000000008152506040518060400160405280601881526020017f5241572e4554482e5553442e564f4c554d453234484f55520000000000000000815250836104ab9092919063ffffffff16565b6000670de0b6b3a764000090506104136040518060400160405280600581526020017f74696d657300000000000000000000000000000000000000000000000000000081525082846104de9092919063ffffffff16565b610442600760009054906101000a900473ffffffffffffffffffffffffffffffffffffffff1683600954610511565b9250505090565b60065481565b6000606082905060008151141561046c576000801b915050610475565b60208301519150505b919050565b610482610f92565b61048a610f92565b6104a1858585846107c9909392919063ffffffff16565b9150509392505050565b6104c282846080015161087990919063ffffffff16565b6104d981846080015161087990919063ffffffff16565b505050565b6104f582846080015161087990919063ffffffff16565b61050c81846080015161089e90919063ffffffff16565b505050565b600030600454604051602001808373ffffffffffffffffffffffffffffffffffffffff1673ffffffffffffffffffffffffffffffffffffffff1660601b815260140182815260200192505050604051602081830303815290604052805190602001209050600454836060018181525050836005600083815260200190815260200160002060006101000a81548173ffffffffffffffffffffffffffffffffffffffff021916908373ffffffffffffffffffffffffffffffffffffffff160217905550807fb5e6e01e79f91267dc17b4e6314d5d4d03593d2ceee0fbb452b750bd70ea5af960405160405180910390a2600260009054906101000a900473ffffffffffffffffffffffffffffffffffffffff1673ffffffffffffffffffffffffffffffffffffffff16634000aea0858461064987610942565b6040518463ffffffff1660e01b8152600401808473ffffffffffffffffffffffffffffffffffffffff1673ffffffffffffffffffffffffffffffffffffffff16815260200183815260200180602001828103825283818151815260200191508051906020019080838360005b838110156106d05780820151818401526020810190506106b5565b50505050905090810190601f1680156106fd5780820380516001836020036101000a031916815260200191505b50945050505050602060405180830381600087803b15801561071e57600080fd5b505af1158015610732573d6000803e3d6000fd5b505050506040513d602081101561074857600080fd5b81019080805190602001909291905050506107ae576040517f08c379a000000000000000000000000000000000000000000000000000000000815260040180806020018281038252602381526020018061101a6023913960400191505060405180910390fd5b60016004600082825401925050819055508090509392505050565b6107d1610f92565b6107e18560800151610100610b0e565b508385600001818152505082856020019073ffffffffffffffffffffffffffffffffffffffff16908173ffffffffffffffffffffffffffffffffffffffff16815250508185604001907bffffffffffffffffffffffffffffffffffffffffffffffffffffffff191690817bffffffffffffffffffffffffffffffffffffffffffffffffffffffff191681525050849050949350505050565b6108868260038351610b62565b6108998183610ca790919063ffffffff16565b505050565b7fffffffffffffffffffffffffffffffffffffffffffffffff00000000000000008112156108d5576108d08282610cc9565b61093e565b67ffffffffffffffff8113156108f4576108ef8282610d37565b61093d565b6000811261090d5761090882600083610b62565b61093c565b61093b826001837fffffffffffffffffffffffffffffffffffffffffffffffffffffffffffffffff03610b62565b5b5b5b5050565b6060634042994660e01b60008084600001518560200151866040015187606001516001896080015160000151604051602401808973ffffffffffffffffffffffffffffffffffffffff1673ffffffffffffffffffffffffffffffffffffffff1681526020018881526020018781526020018673ffffffffffffffffffffffffffffffffffffffff1673ffffffffffffffffffffffffffffffffffffffff168152602001857bffffffffffffffffffffffffffffffffffffffffffffffffffffffff19167bffffffffffffffffffffffffffffffffffffffffffffffffffffffff1916815260200184815260200183815260200180602001828103825283818151815260200191508051906020019080838360005b83811015610a71578082015181840152602081019050610a56565b50505050905090810190601f168015610a9e5780820380516001836020036101000a031916815260200191505b509950505050505050505050604051602081830303815290604052907bffffffffffffffffffffffffffffffffffffffffffffffffffffffff19166020820180517bffffffffffffffffffffffffffffffffffffffffffffffffffffffff83818316178352505050509050919050565b610b16610fff565b600060208381610b2257fe5b0614610b3b5760208281610b3257fe5b06602003820191505b81836020018181525050604051808452600081528281016020016040525082905092915050565b60178111610b8f57610b898160058460ff16901b60ff161784610d8390919063ffffffff16565b50610ca2565b60ff8111610bd157610bb4601860058460ff16901b1784610d8390919063ffffffff16565b50610bcb81600185610da39092919063ffffffff16565b50610ca1565b61ffff8111610c1457610bf7601960058460ff16901b1784610d8390919063ffffffff16565b50610c0e81600285610da39092919063ffffffff16565b50610ca0565b63ffffffff8111610c5957610c3c601a60058460ff16901b1784610d8390919063ffffffff16565b50610c5381600485610da39092919063ffffffff16565b50610c9f565b67ffffffffffffffff8111610c9e57610c85601b60058460ff16901b1784610d8390919063ffffffff16565b50610c9c81600885610da39092919063ffffffff16565b505b5b5b5b5b505050565b610caf610fff565b610cc183846000015151848551610dc5565b905092915050565b610ce760036005600660ff16901b1783610d8390919063ffffffff16565b50610d3382827fffffffffffffffffffffffffffffffffffffffffffffffffffffffffffffffff0360405160200180828152602001915050604051602081830303815290604052610e7e565b5050565b610d5560026005600660ff16901b1783610d8390919063ffffffff16565b50610d7f828260405160200180828152602001915050604051602081830303815290604052610e7e565b5050565b610d8b610fff565b610d9b8384600001515184610ea3565b905092915050565b610dab610fff565b610dbc848560000151518585610ef1565b90509392505050565b610dcd610fff565b8251821115610ddb57600080fd5b84602001518285011115610e0657610e05856002610dff8860200151888701610f52565b02610f6e565b5b600080865180518760208301019350808887011115610e255787860182525b60208701925050505b60208410610e515780518252602082019150602081019050602084039350610e2e565b60006001856020036101000a03905080198251168184511681811785525050879350505050949350505050565b610e8b8260028351610b62565b610e9e8183610ca790919063ffffffff16565b505050565b610eab610fff565b83602001518310610ec857610ec7846002866020015102610f6e565b5b8351805160208583010184815381861415610ee4576001820183525b5050508390509392505050565b610ef9610fff565b84602001518483011115610f1757610f1685600286850102610f6e565b5b60006001836101000a0390508551838682010185831982511617815281518588011115610f445784870182525b505085915050949350505050565b600081831115610f6457829050610f68565b8190505b92915050565b606082600001519050610f818383610b0e565b50610f8c8382610ca7565b50505050565b6040518060a0016040528060008019168152602001600073ffffffffffffffffffffffffffffffffffffffff16815260200160007bffffffffffffffffffffffffffffffffffffffffffffffffffffffff1916815260200160008152602001610ff9610fff565b81525090565b60405180604001604052806060815260200160008152509056fe756e61626c6520746f207472616e73666572416e6443616c6c20746f206f7261636c65536f75726365206d75737420626520746865206f7261636c65206f6620746865207265717565737468747470733a2f2f6d696e2d6170692e63727970746f636f6d706172652e636f6d2f646174612f70726963656d756c746966756c6c3f6673796d733d455448267473796d733d555344a2646970667358221220ec056ac64a50ec4b6580248e5695988379137686eb3a8f7c1491f7c4c1a6542964736f6c63430006060033",
  "devdoc": {
    "methods": {}
  },
  "userdoc": {
    "methods": {
      "constructor": "Network: Kovan Oracle: 0x2f90A6D021db21e1B2A077c5a37B3C7E75D15b7e Job ID: 29fa9aa13bf1468788b7cc4a500a45b8 Fee: 0.1 LINK",
      "fulfill(bytes32,uint256)": {
        "notice": "Receive the response in the form of uint256"
      },
      "requestVolumeData()": {
        "notice": "Create a Chainlink request to retrieve API response, find the target data, then multiply by 1000000000000000000 (to remove decimal places from data)."
      }
    }
  },
  "storageLayout": {
    "storage": [
      {
        "astId": 303,
        "contract": "contracts/APIConsumer.sol:APIConsumer",
        "label": "ens",
        "offset": 0,
        "slot": "0",
        "type": "t_contract(ENSInterface)1211"
      },
      {
        "astId": 305,
        "contract": "contracts/APIConsumer.sol:APIConsumer",
        "label": "ensNode",
        "offset": 0,
        "slot": "1",
        "type": "t_bytes32"
      },
      {
        "astId": 307,
        "contract": "contracts/APIConsumer.sol:APIConsumer",
        "label": "link",
        "offset": 0,
        "slot": "2",
        "type": "t_contract(LinkTokenInterface)1306"
      },
      {
        "astId": 309,
        "contract": "contracts/APIConsumer.sol:APIConsumer",
        "label": "oracle",
        "offset": 0,
        "slot": "3",
        "type": "t_contract(ChainlinkRequestInterface)1131"
      },
      {
        "astId": 312,
        "contract": "contracts/APIConsumer.sol:APIConsumer",
        "label": "requestCount",
        "offset": 0,
        "slot": "4",
        "type": "t_uint256"
      },
      {
        "astId": 316,
        "contract": "contracts/APIConsumer.sol:APIConsumer",
        "label": "pendingRequests",
        "offset": 0,
        "slot": "5",
        "type": "t_mapping(t_bytes32,t_address)"
      },
      {
        "astId": 3929,
        "contract": "contracts/APIConsumer.sol:APIConsumer",
        "label": "volume",
        "offset": 0,
        "slot": "6",
        "type": "t_uint256"
      },
      {
        "astId": 3931,
        "contract": "contracts/APIConsumer.sol:APIConsumer",
        "label": "oracle",
        "offset": 0,
        "slot": "7",
        "type": "t_address"
      },
      {
        "astId": 3933,
        "contract": "contracts/APIConsumer.sol:APIConsumer",
        "label": "jobId",
        "offset": 0,
        "slot": "8",
        "type": "t_bytes32"
      },
      {
        "astId": 3935,
        "contract": "contracts/APIConsumer.sol:APIConsumer",
        "label": "fee",
        "offset": 0,
        "slot": "9",
        "type": "t_uint256"
      }
    ],
    "types": {
      "t_address": {
        "encoding": "inplace",
        "label": "address",
        "numberOfBytes": "20"
      },
      "t_bytes32": {
        "encoding": "inplace",
        "label": "bytes32",
        "numberOfBytes": "32"
      },
      "t_contract(ChainlinkRequestInterface)1131": {
        "encoding": "inplace",
        "label": "contract ChainlinkRequestInterface",
        "numberOfBytes": "20"
      },
      "t_contract(ENSInterface)1211": {
        "encoding": "inplace",
        "label": "contract ENSInterface",
        "numberOfBytes": "20"
      },
      "t_contract(LinkTokenInterface)1306": {
        "encoding": "inplace",
        "label": "contract LinkTokenInterface",
        "numberOfBytes": "20"
      },
      "t_mapping(t_bytes32,t_address)": {
        "encoding": "mapping",
        "key": "t_bytes32",
        "label": "mapping(bytes32 => address)",
        "numberOfBytes": "32",
        "value": "t_address"
      },
      "t_uint256": {
        "encoding": "inplace",
        "label": "uint256",
        "numberOfBytes": "32"
      }
    }
  }
}